{
  "contractName": "cryptoPolicy",
  "abi": [
    {
      "inputs": [
        {
          "internalType": "string",
          "name": "_name",
          "type": "string"
        },
        {
          "internalType": "string",
          "name": "_symbol",
          "type": "string"
        }
      ],
      "stateMutability": "nonpayable",
      "type": "constructor"
    },
    {
      "anonymous": false,
      "inputs": [
        {
          "indexed": true,
          "internalType": "address",
          "name": "owner",
          "type": "address"
        },
        {
          "indexed": true,
          "internalType": "address",
          "name": "approved",
          "type": "address"
        },
        {
          "indexed": true,
          "internalType": "uint256",
          "name": "tokenId",
          "type": "uint256"
        }
      ],
      "name": "Approval",
      "type": "event"
    },
    {
      "anonymous": false,
      "inputs": [
        {
          "indexed": true,
          "internalType": "address",
          "name": "owner",
          "type": "address"
        },
        {
          "indexed": true,
          "internalType": "address",
          "name": "operator",
          "type": "address"
        },
        {
          "indexed": false,
          "internalType": "bool",
          "name": "approved",
          "type": "bool"
        }
      ],
      "name": "ApprovalForAll",
      "type": "event"
    },
    {
      "anonymous": false,
      "inputs": [
        {
          "indexed": true,
          "internalType": "address",
          "name": "oldRelayHub",
          "type": "address"
        },
        {
          "indexed": true,
          "internalType": "address",
          "name": "newRelayHub",
          "type": "address"
        }
      ],
      "name": "RelayHubChanged",
      "type": "event"
    },
    {
      "anonymous": false,
      "inputs": [
        {
          "indexed": true,
          "internalType": "address",
          "name": "from",
          "type": "address"
        },
        {
          "indexed": true,
          "internalType": "address",
          "name": "to",
          "type": "address"
        },
        {
          "indexed": true,
          "internalType": "uint256",
          "name": "tokenId",
          "type": "uint256"
        }
      ],
      "name": "Transfer",
      "type": "event"
    },
    {
      "inputs": [],
      "name": "admin",
      "outputs": [
        {
          "internalType": "address",
          "name": "",
          "type": "address"
        }
      ],
      "stateMutability": "view",
      "type": "function"
    },
    {
      "inputs": [
        {
          "internalType": "address",
          "name": "to",
          "type": "address"
        },
        {
          "internalType": "uint256",
          "name": "tokenId",
          "type": "uint256"
        }
      ],
      "name": "approve",
      "outputs": [],
      "stateMutability": "nonpayable",
      "type": "function"
    },
    {
      "inputs": [
        {
          "internalType": "address",
          "name": "owner",
          "type": "address"
        }
      ],
      "name": "balanceOf",
      "outputs": [
        {
          "internalType": "uint256",
          "name": "",
          "type": "uint256"
        }
      ],
      "stateMutability": "view",
      "type": "function"
    },
    {
      "inputs": [],
      "name": "baseURI",
      "outputs": [
        {
          "internalType": "string",
          "name": "",
          "type": "string"
        }
      ],
      "stateMutability": "view",
      "type": "function"
    },
    {
      "inputs": [
        {
          "internalType": "uint256",
          "name": "",
          "type": "uint256"
        }
      ],
      "name": "claims",
      "outputs": [
        {
          "internalType": "uint256",
          "name": "claimId",
          "type": "uint256"
        },
        {
          "internalType": "string",
          "name": "claimDate",
          "type": "string"
        },
        {
          "internalType": "string",
          "name": "hospitalName",
          "type": "string"
        },
        {
          "internalType": "string",
          "name": "description",
          "type": "string"
        },
        {
          "internalType": "uint256",
          "name": "amount",
          "type": "uint256"
        },
        {
          "internalType": "string",
          "name": "claimDocumentHash",
          "type": "string"
        },
        {
          "internalType": "string",
          "name": "status",
          "type": "string"
        },
        {
          "internalType": "uint256",
          "name": "policyId",
          "type": "uint256"
        }
      ],
      "stateMutability": "view",
      "type": "function"
    },
    {
      "inputs": [
        {
          "internalType": "uint256",
          "name": "tokenId",
          "type": "uint256"
        }
      ],
      "name": "getApproved",
      "outputs": [
        {
          "internalType": "address",
          "name": "",
          "type": "address"
        }
      ],
      "stateMutability": "view",
      "type": "function"
    },
    {
      "inputs": [],
      "name": "getHubAddr",
      "outputs": [
        {
          "internalType": "address",
          "name": "",
          "type": "address"
        }
      ],
      "stateMutability": "view",
      "type": "function"
    },
    {
      "inputs": [
        {
          "internalType": "address",
          "name": "owner",
          "type": "address"
        },
        {
          "internalType": "address",
          "name": "operator",
          "type": "address"
        }
      ],
      "name": "isApprovedForAll",
      "outputs": [
        {
          "internalType": "bool",
          "name": "",
          "type": "bool"
        }
      ],
      "stateMutability": "view",
      "type": "function"
    },
    {
      "inputs": [],
      "name": "name",
      "outputs": [
        {
          "internalType": "string",
          "name": "",
          "type": "string"
        }
      ],
      "stateMutability": "view",
      "type": "function"
    },
    {
      "inputs": [
        {
          "internalType": "uint256",
          "name": "tokenId",
          "type": "uint256"
        }
      ],
      "name": "ownerOf",
      "outputs": [
        {
          "internalType": "address",
          "name": "",
          "type": "address"
        }
      ],
      "stateMutability": "view",
      "type": "function"
    },
    {
      "inputs": [
        {
          "internalType": "uint256",
          "name": "",
          "type": "uint256"
        }
      ],
      "name": "policies",
      "outputs": [
        {
          "internalType": "uint256",
          "name": "policyId",
          "type": "uint256"
        },
        {
          "internalType": "address",
          "name": "owner",
          "type": "address"
        },
        {
          "internalType": "uint256",
          "name": "customerId",
          "type": "uint256"
        },
        {
          "internalType": "string",
          "name": "kycHash",
          "type": "string"
        },
        {
          "internalType": "string",
          "name": "policyType",
          "type": "string"
        },
        {
          "internalType": "bool",
          "name": "active",
          "type": "bool"
        }
      ],
      "stateMutability": "view",
      "type": "function"
    },
    {
      "inputs": [
        {
          "internalType": "bytes",
          "name": "context",
          "type": "bytes"
        },
        {
          "internalType": "bool",
          "name": "success",
          "type": "bool"
        },
        {
          "internalType": "uint256",
          "name": "actualCharge",
          "type": "uint256"
        },
        {
          "internalType": "bytes32",
          "name": "preRetVal",
          "type": "bytes32"
        }
      ],
      "name": "postRelayedCall",
      "outputs": [],
      "stateMutability": "nonpayable",
      "type": "function"
    },
    {
      "inputs": [
        {
          "internalType": "bytes",
          "name": "context",
          "type": "bytes"
        }
      ],
      "name": "preRelayedCall",
      "outputs": [
        {
          "internalType": "bytes32",
          "name": "",
          "type": "bytes32"
        }
      ],
      "stateMutability": "nonpayable",
      "type": "function"
    },
    {
      "inputs": [],
      "name": "relayHubVersion",
      "outputs": [
        {
          "internalType": "string",
          "name": "",
          "type": "string"
        }
      ],
      "stateMutability": "view",
      "type": "function"
    },
    {
      "inputs": [
        {
          "internalType": "address",
          "name": "from",
          "type": "address"
        },
        {
          "internalType": "address",
          "name": "to",
          "type": "address"
        },
        {
          "internalType": "uint256",
          "name": "tokenId",
          "type": "uint256"
        }
      ],
      "name": "safeTransferFrom",
      "outputs": [],
      "stateMutability": "nonpayable",
      "type": "function"
    },
    {
      "inputs": [
        {
          "internalType": "address",
          "name": "from",
          "type": "address"
        },
        {
          "internalType": "address",
          "name": "to",
          "type": "address"
        },
        {
          "internalType": "uint256",
          "name": "tokenId",
          "type": "uint256"
        },
        {
          "internalType": "bytes",
          "name": "_data",
          "type": "bytes"
        }
      ],
      "name": "safeTransferFrom",
      "outputs": [],
      "stateMutability": "nonpayable",
      "type": "function"
    },
    {
      "inputs": [
        {
          "internalType": "address",
          "name": "operator",
          "type": "address"
        },
        {
          "internalType": "bool",
          "name": "approved",
          "type": "bool"
        }
      ],
      "name": "setApprovalForAll",
      "outputs": [],
      "stateMutability": "nonpayable",
      "type": "function"
    },
    {
      "inputs": [
        {
          "internalType": "bytes4",
          "name": "interfaceId",
          "type": "bytes4"
        }
      ],
      "name": "supportsInterface",
      "outputs": [
        {
          "internalType": "bool",
          "name": "",
          "type": "bool"
        }
      ],
      "stateMutability": "view",
      "type": "function"
    },
    {
      "inputs": [],
      "name": "symbol",
      "outputs": [
        {
          "internalType": "string",
          "name": "",
          "type": "string"
        }
      ],
      "stateMutability": "view",
      "type": "function"
    },
    {
      "inputs": [
        {
          "internalType": "uint256",
          "name": "index",
          "type": "uint256"
        }
      ],
      "name": "tokenByIndex",
      "outputs": [
        {
          "internalType": "uint256",
          "name": "",
          "type": "uint256"
        }
      ],
      "stateMutability": "view",
      "type": "function"
    },
    {
      "inputs": [
        {
          "internalType": "address",
          "name": "owner",
          "type": "address"
        },
        {
          "internalType": "uint256",
          "name": "index",
          "type": "uint256"
        }
      ],
      "name": "tokenOfOwnerByIndex",
      "outputs": [
        {
          "internalType": "uint256",
          "name": "",
          "type": "uint256"
        }
      ],
      "stateMutability": "view",
      "type": "function"
    },
    {
      "inputs": [
        {
          "internalType": "uint256",
          "name": "tokenId",
          "type": "uint256"
        }
      ],
      "name": "tokenURI",
      "outputs": [
        {
          "internalType": "string",
          "name": "",
          "type": "string"
        }
      ],
      "stateMutability": "view",
      "type": "function"
    },
    {
      "inputs": [],
      "name": "totalSupply",
      "outputs": [
        {
          "internalType": "uint256",
          "name": "",
          "type": "uint256"
        }
      ],
      "stateMutability": "view",
      "type": "function"
    },
    {
      "inputs": [
        {
          "internalType": "address",
          "name": "from",
          "type": "address"
        },
        {
          "internalType": "address",
          "name": "to",
          "type": "address"
        },
        {
          "internalType": "uint256",
          "name": "tokenId",
          "type": "uint256"
        }
      ],
      "name": "transferFrom",
      "outputs": [],
      "stateMutability": "nonpayable",
      "type": "function"
    },
    {
      "inputs": [
        {
          "internalType": "address",
          "name": "",
          "type": "address"
        }
      ],
      "name": "userCustomerId",
      "outputs": [
        {
          "internalType": "uint256",
          "name": "",
          "type": "uint256"
        }
      ],
      "stateMutability": "view",
      "type": "function"
    },
    {
      "inputs": [
        {
          "internalType": "address",
          "name": "",
          "type": "address"
        },
        {
          "internalType": "uint256",
          "name": "",
          "type": "uint256"
        }
      ],
      "name": "userPolicies",
      "outputs": [
        {
          "internalType": "uint256",
          "name": "",
          "type": "uint256"
        }
      ],
      "stateMutability": "view",
      "type": "function"
    },
    {
      "inputs": [
        {
          "internalType": "address",
          "name": "relay",
          "type": "address"
        },
        {
          "internalType": "address",
          "name": "from",
          "type": "address"
        },
        {
          "internalType": "bytes",
          "name": "encodedFunction",
          "type": "bytes"
        },
        {
          "internalType": "uint256",
          "name": "transactionFee",
          "type": "uint256"
        },
        {
          "internalType": "uint256",
          "name": "gasPrice",
          "type": "uint256"
        },
        {
          "internalType": "uint256",
          "name": "gasLimit",
          "type": "uint256"
        },
        {
          "internalType": "uint256",
          "name": "nonce",
          "type": "uint256"
        },
        {
          "internalType": "bytes",
          "name": "approvalData",
          "type": "bytes"
        },
        {
          "internalType": "uint256",
          "name": "maxPossibleCharge",
          "type": "uint256"
        }
      ],
      "name": "acceptRelayedCall",
      "outputs": [
        {
          "internalType": "uint256",
          "name": "",
          "type": "uint256"
        },
        {
          "internalType": "bytes",
          "name": "",
          "type": "bytes"
        }
      ],
      "stateMutability": "view",
      "type": "function"
    },
    {
      "inputs": [],
      "name": "checkNewCustomer",
      "outputs": [
        {
          "internalType": "bool",
          "name": "",
          "type": "bool"
        }
      ],
      "stateMutability": "view",
      "type": "function"
    },
    {
      "inputs": [],
      "name": "createNewCustomer",
      "outputs": [
        {
          "internalType": "uint256",
          "name": "",
          "type": "uint256"
        }
      ],
      "stateMutability": "nonpayable",
      "type": "function"
    },
    {
      "inputs": [
        {
          "internalType": "string",
          "name": "_policyType",
          "type": "string"
        }
      ],
      "name": "createPolicyType",
      "outputs": [],
      "stateMutability": "nonpayable",
      "type": "function"
    },
    {
      "inputs": [],
      "name": "getPolicyTypes",
      "outputs": [
        {
          "internalType": "string[]",
          "name": "",
          "type": "string[]"
        }
      ],
      "stateMutability": "view",
      "type": "function"
    },
    {
      "inputs": [],
      "name": "getOwner",
      "outputs": [
        {
          "internalType": "address",
          "name": "",
          "type": "address"
        }
      ],
      "stateMutability": "view",
      "type": "function"
    },
    {
      "inputs": [],
      "name": "getPolicyIds",
      "outputs": [
        {
          "internalType": "uint256[]",
          "name": "",
          "type": "uint256[]"
        }
      ],
      "stateMutability": "view",
      "type": "function"
    },
    {
      "inputs": [
        {
          "internalType": "address",
          "name": "_address",
          "type": "address"
        }
      ],
      "name": "getUserPolicies",
      "outputs": [
        {
          "internalType": "uint256[]",
          "name": "",
          "type": "uint256[]"
        }
      ],
      "stateMutability": "view",
      "type": "function"
    },
    {
      "inputs": [
        {
          "internalType": "address",
          "name": "_address",
          "type": "address"
        }
      ],
      "name": "getUserCustomerId",
      "outputs": [
        {
          "internalType": "uint256",
          "name": "",
          "type": "uint256"
        }
      ],
      "stateMutability": "view",
      "type": "function"
    },
    {
      "inputs": [
        {
          "internalType": "uint256",
          "name": "_policyId",
          "type": "uint256"
        }
      ],
      "name": "getPolicy",
      "outputs": [
        {
          "components": [
            {
              "internalType": "uint256",
              "name": "policyId",
              "type": "uint256"
            },
            {
              "internalType": "address",
              "name": "owner",
              "type": "address"
            },
            {
              "internalType": "uint256",
              "name": "customerId",
              "type": "uint256"
            },
            {
              "internalType": "string",
              "name": "kycHash",
              "type": "string"
            },
            {
              "internalType": "string",
              "name": "policyType",
              "type": "string"
            },
            {
              "internalType": "uint256[]",
              "name": "claimIds",
              "type": "uint256[]"
            },
            {
              "internalType": "bool",
              "name": "active",
              "type": "bool"
            }
          ],
          "internalType": "struct cryptoPolicy.policy",
          "name": "",
          "type": "tuple"
        }
      ],
      "stateMutability": "view",
      "type": "function"
    },
    {
      "inputs": [
        {
          "internalType": "uint256",
          "name": "_claimId",
          "type": "uint256"
        }
      ],
      "name": "getClaim",
      "outputs": [
        {
          "components": [
            {
              "internalType": "uint256",
              "name": "claimId",
              "type": "uint256"
            },
            {
              "internalType": "string",
              "name": "claimDate",
              "type": "string"
            },
            {
              "internalType": "string",
              "name": "hospitalName",
              "type": "string"
            },
            {
              "internalType": "string",
              "name": "description",
              "type": "string"
            },
            {
              "internalType": "uint256",
              "name": "amount",
              "type": "uint256"
            },
            {
              "internalType": "string",
              "name": "claimDocumentHash",
              "type": "string"
            },
            {
              "internalType": "string",
              "name": "status",
              "type": "string"
            },
            {
              "internalType": "uint256",
              "name": "policyId",
              "type": "uint256"
            }
          ],
          "internalType": "struct cryptoPolicy.claim",
          "name": "",
          "type": "tuple"
        }
      ],
      "stateMutability": "view",
      "type": "function"
    },
    {
      "inputs": [],
      "name": "getAllClaimIds",
      "outputs": [
        {
          "internalType": "uint256[]",
          "name": "",
          "type": "uint256[]"
        }
      ],
      "stateMutability": "view",
      "type": "function"
    },
    {
      "inputs": [
        {
          "internalType": "uint256",
          "name": "_policyId",
          "type": "uint256"
        }
      ],
      "name": "getUserPolicyClaimIds",
      "outputs": [
        {
          "internalType": "uint256[]",
          "name": "",
          "type": "uint256[]"
        }
      ],
      "stateMutability": "view",
      "type": "function"
    },
    {
      "inputs": [
        {
          "internalType": "string",
          "name": "_documentHash",
          "type": "string"
        },
        {
          "internalType": "string",
          "name": "_policyType",
          "type": "string"
        }
      ],
      "name": "createPolicy",
      "outputs": [],
      "stateMutability": "nonpayable",
      "type": "function"
    },
    {
      "inputs": [
        {
          "internalType": "uint256",
          "name": "_policyId",
          "type": "uint256"
        }
      ],
      "name": "burn",
      "outputs": [],
      "stateMutability": "nonpayable",
      "type": "function"
    },
    {
      "inputs": [
        {
          "internalType": "uint256",
          "name": "_policyId",
          "type": "uint256"
        },
        {
          "internalType": "string",
          "name": "_claimDate",
          "type": "string"
        },
        {
          "internalType": "string",
          "name": "_hospitalName",
          "type": "string"
        },
        {
          "internalType": "string",
          "name": "_description",
          "type": "string"
        },
        {
          "internalType": "uint256",
          "name": "_amount",
          "type": "uint256"
        },
        {
          "internalType": "string",
          "name": "_claimdocs",
          "type": "string"
        }
      ],
      "name": "claimPolicy",
      "outputs": [],
      "stateMutability": "nonpayable",
      "type": "function"
    },
    {
      "inputs": [
        {
          "internalType": "uint256",
          "name": "_claimId",
          "type": "uint256"
        }
      ],
      "name": "approveClaim",
      "outputs": [],
      "stateMutability": "nonpayable",
      "type": "function"
    },
    {
      "inputs": [
        {
          "internalType": "uint256",
          "name": "_claimId",
          "type": "uint256"
        }
      ],
      "name": "rejectClaim",
      "outputs": [],
      "stateMutability": "nonpayable",
      "type": "function"
    }
  ],
  "bytecode": "0x60806040523480156200001157600080fd5b5060405162006bd238038062006bd2833981810160405262000037919081019062000ad0565b6200004982826200032260201b60201c565b620000596200044e60201b60201c565b61010260006101000a81548173ffffffffffffffffffffffffffffffffffffffff021916908373ffffffffffffffffffffffffffffffffffffffff16021790555060fb80600181540180825580915050600190039060005260206000200160006040518060400160405280600581526020017f536d6172740000000000000000000000000000000000000000000000000000008152509091909150908051906020019062000109929190620009c5565b5060fb80600181540180825580915050600190039060005260206000200160006040518060400160405280600381526020017f33363000000000000000000000000000000000000000000000000000000000008152509091909150908051906020019062000179929190620009c5565b5060fb80600181540180825580915050600190039060005260206000200160006040518060400160405280600881526020017f506572736f6e616c00000000000000000000000000000000000000000000000081525090919091509080519060200190620001e9929190620009c5565b5060fb80600181540180825580915050600190039060005260206000200160006040518060400160405280600681526020017f46616d696c7900000000000000000000000000000000000000000000000000008152509091909150908051906020019062000259929190620009c5565b506000620186a042620002716200044e60201b60201c565b61010354604051602001620002899392919062000c23565b6040516020818303038152906040528051906020012060001c81620002aa57fe5b069050600181019050610103600081548092919060010191905055508060ff6000620002db6200044e60201b60201c565b73ffffffffffffffffffffffffffffffffffffffff1673ffffffffffffffffffffffffffffffffffffffff1681526020019081526020016000208190555050505062000dc9565b600060019054906101000a900460ff16806200034a5750620003496200046a60201b60201c565b5b806200036257506000809054906101000a900460ff16155b620003a4576040517f08c379a00000000000000000000000000000000000000000000000000000000081526004016200039b9062000c88565b60405180910390fd5b60008060019054906101000a900460ff161590508015620003f5576001600060016101000a81548160ff02191690831515021790555060016000806101000a81548160ff0219169083151502179055505b620004056200048160201b60201c565b620004156200057960201b60201c565b6200042783836200068960201b60201c565b8015620004495760008060016101000a81548160ff0219169083151502179055505b505050565b600062000465620007fd60201b620038101760201c565b905090565b6000803090506000813b9050600081149250505090565b600060019054906101000a900460ff1680620004a95750620004a86200046a60201b60201c565b5b80620004c157506000809054906101000a900460ff16155b62000503576040517f08c379a0000000000000000000000000000000000000000000000000000000008152600401620004fa9062000c88565b60405180910390fd5b60008060019054906101000a900460ff16159050801562000554576001600060016101000a81548160ff02191690831515021790555060016000806101000a81548160ff0219169083151502179055505b8015620005765760008060016101000a81548160ff0219169083151502179055505b50565b600060019054906101000a900460ff1680620005a15750620005a06200046a60201b60201c565b5b80620005b957506000809054906101000a900460ff16155b620005fb576040517f08c379a0000000000000000000000000000000000000000000000000000000008152600401620005f29062000c88565b60405180910390fd5b60008060019054906101000a900460ff1615905080156200064c576001600060016101000a81548160ff02191690831515021790555060016000806101000a81548160ff0219169083151502179055505b620006646301ffc9a760e01b6200087460201b60201c565b8015620006865760008060016101000a81548160ff0219169083151502179055505b50565b600060019054906101000a900460ff1680620006b15750620006b06200046a60201b60201c565b5b80620006c957506000809054906101000a900460ff16155b6200070b576040517f08c379a0000000000000000000000000000000000000000000000000000000008152600401620007029062000c88565b60405180910390fd5b60008060019054906101000a900460ff1615905080156200075c576001600060016101000a81548160ff02191690831515021790555060016000806101000a81548160ff0219169083151502179055505b82609c908051906020019062000774929190620009c5565b5081609d90805190602001906200078d929190620009c5565b50620007a66380ac58cd60e01b6200087460201b60201c565b620007be635b5e139f60e01b6200087460201b60201c565b620007d663780e9d6360e01b6200087460201b60201c565b8015620007f85760008060016101000a81548160ff0219169083151502179055505b505050565b600060c960009054906101000a900473ffffffffffffffffffffffffffffffffffffffff1673ffffffffffffffffffffffffffffffffffffffff163373ffffffffffffffffffffffffffffffffffffffff16146200085e5733905062000871565b6200086e6200094d60201b60201c565b90505b90565b63ffffffff60e01b817bffffffffffffffffffffffffffffffffffffffffffffffffffffffff19161415620008e0576040517f08c379a0000000000000000000000000000000000000000000000000000000008152600401620008d79062000c66565b60405180910390fd5b600160656000837bffffffffffffffffffffffffffffffffffffffffffffffffffffffff19167bffffffffffffffffffffffffffffffffffffffffffffffffffffffff1916815260200190815260200160002060006101000a81548160ff02191690831515021790555050565b600060606000368080601f016020809104026020016040519081016040528093929190818152602001838380828437600081840152601f19601f820116905080830192505050505050509050600080369050905073ffffffffffffffffffffffffffffffffffffffff81830151169250829250505090565b828054600181600116156101000203166002900490600052602060002090601f016020900481019282601f1062000a0857805160ff191683800117855562000a39565b8280016001018555821562000a39579182015b8281111562000a3857825182559160200191906001019062000a1b565b5b50905062000a48919062000a4c565b5090565b62000a7191905b8082111562000a6d57600081600090555060010162000a53565b5090565b90565b600082601f83011262000a8657600080fd5b815162000a9d62000a978262000cd8565b62000caa565b9150808252602083016020830185838301111562000aba57600080fd5b62000ac783828462000d54565b50505092915050565b6000806040838503121562000ae457600080fd5b600083015167ffffffffffffffff81111562000aff57600080fd5b62000b0d8582860162000a74565b925050602083015167ffffffffffffffff81111562000b2b57600080fd5b62000b398582860162000a74565b9150509250929050565b62000b5862000b528262000d16565b62000d8a565b82525050565b600062000b6d601c8362000d05565b91507f4552433136353a20696e76616c696420696e74657266616365206964000000006000830152602082019050919050565b600062000baf602e8362000d05565b91507f436f6e747261637420696e7374616e63652068617320616c726561647920626560008301527f656e20696e697469616c697a65640000000000000000000000000000000000006020830152604082019050919050565b62000c1d62000c178262000d4a565b62000db2565b82525050565b600062000c31828662000c08565b60208201915062000c43828562000b43565b60148201915062000c55828462000c08565b602082019150819050949350505050565b6000602082019050818103600083015262000c818162000b5e565b9050919050565b6000602082019050818103600083015262000ca38162000ba0565b9050919050565b6000604051905081810181811067ffffffffffffffff8211171562000cce57600080fd5b8060405250919050565b600067ffffffffffffffff82111562000cf057600080fd5b601f19601f8301169050602081019050919050565b600082825260208201905092915050565b600062000d238262000d2a565b9050919050565b600073ffffffffffffffffffffffffffffffffffffffff82169050919050565b6000819050919050565b60005b8381101562000d7457808201518184015260208101905062000d57565b8381111562000d84576000848401525b50505050565b600062000d978262000d9e565b9050919050565b600062000dab8262000dbc565b9050919050565b6000819050919050565b60008160601b9050919050565b615df98062000dd96000396000f3fe608060405234801561001057600080fd5b50600436106102745760003560e01c80636c0360eb11610151578063ad16185f116100c3578063d3e8948311610087578063d3e8948314610801578063d5e0781414610836578063e06e0e2214610866578063e985e9c514610882578063f851a440146108b2578063fc93ca06146108d057610274565b8063ad16185f1461075d578063ad61ccd51461077b578063b88d4fde14610799578063c87b56dd146107b5578063d242d5bb146107e557610274565b8063893d20e811610115578063893d20e8146106945780639154c16b146106b257806395d89b41146106d0578063a22cb465146106ee578063a888c2cd1461070a578063aaefba641461074157610274565b80636c0360eb146105c757806370a08231146105e557806374e861d61461061557806380274db71461063357806383947ea01461066357610274565b80633d36adc5116101ea5780634f6ccce7116101ae5780634f6ccce7146104b957806356b0c2a6146104e95780635aef24471461051957806360ef85c2146105495780636352211e14610567578063659d87771461059757610274565b80633d36adc5146104175780633e6e01e51461044757806342842e0e1461046557806342966c681461048157806346e301351461049d57610274565b806319ac46141161023c57806319ac461414610331578063203411011461036157806323b872dd1461037d5780632abfd6da146103995780632b07fce3146103b75780632f745c59146103e757610274565b806301ffc9a71461027957806306fdde03146102a9578063081812fc146102c7578063095ea7b3146102f757806318160ddd14610313575b600080fd5b610293600480360361028e919081019061465c565b6108ec565b6040516102a09190615623565b60405180910390f35b6102b1610954565b6040516102be9190615659565b60405180910390f35b6102e160048036036102dc9190810190614820565b6109f6565b6040516102ee9190615578565b60405180910390f35b610311600480360361030c9190810190614620565b610a7b565b005b61031b610b93565b60405161032891906158ff565b60405180910390f35b61034b600480360361034691908101906143b5565b610ba4565b6040516103589190615601565b60405180910390f35b61037b60048036036103769190810190614820565b610c7a565b005b6103976004803603610392919081019061451a565b610d76565b005b6103a1610dd6565b6040516103ae9190615601565b60405180910390f35b6103d160048036036103cc9190810190614820565b610ec6565b6040516103de91906158dd565b60405180910390f35b61040160048036036103fc9190810190614620565b611227565b60405161040e91906158ff565b60405180910390f35b610431600480360361042c9190810190614620565b611282565b60405161043e91906158ff565b60405180910390f35b61044f6112b0565b60405161045c91906158ff565b60405180910390f35b61047f600480360361047a919081019061451a565b611361565b005b61049b60048036036104969190810190614820565b611381565b005b6104b760048036036104b29190810190614820565b61142a565b005b6104d360048036036104ce9190810190614820565b611526565b6040516104e091906158ff565b60405180910390f35b61050360048036036104fe91908101906143b5565b611549565b60405161051091906158ff565b60405180910390f35b610533600480360361052e9190810190614820565b6115d1565b60405161054091906158bb565b60405180910390f35b610551611948565b60405161055e91906155df565b60405180910390f35b610581600480360361057c9190810190614820565b611a31565b60405161058e9190615578565b60405180910390f35b6105b160048036036105ac9190810190614820565b611a68565b6040516105be9190615601565b60405180910390f35b6105cf611b4d565b6040516105dc9190615659565b60405180910390f35b6105ff60048036036105fa91908101906143b5565b611bef565b60405161060c91906158ff565b60405180910390f35b61061d611cae565b60405161062a9190615578565b60405180910390f35b61064d600480360361064891908101906146ae565b611cd8565b60405161065a919061563e565b60405180910390f35b61067d6004803603610678919081019061441a565b611d5f565b60405161068b929190615989565b60405180910390f35b61069c611d7f565b6040516106a99190615578565b60405180910390f35b6106ba611daa565b6040516106c79190615623565b60405180910390f35b6106d8611e0b565b6040516106e59190615659565b60405180910390f35b610708600480360361070391908101906145e4565b611ead565b005b610724600480360361071f9190810190614820565b61202e565b6040516107389897969594939291906159b9565b60405180910390f35b61075b60048036036107569190810190614849565b61236f565b005b6107656126f2565b6040516107729190615601565b60405180910390f35b6107836127e2565b6040516107909190615659565b60405180910390f35b6107b360048036036107ae9190810190614569565b61281f565b005b6107cf60048036036107ca9190810190614820565b612881565b6040516107dc9190615659565b60405180910390f35b6107ff60048036036107fa91908101906147df565b612a0c565b005b61081b60048036036108169190810190614820565b612ae3565b60405161082d9695949392919061591a565b60405180910390f35b610850600480360361084b91908101906143b5565b612c7d565b60405161085d91906158ff565b60405180910390f35b610880600480360361087b91908101906146ef565b612c95565b005b61089c600480360361089791908101906143de565b612d1c565b6040516108a99190615623565b60405180910390f35b6108ba612db0565b6040516108c79190615578565b60405180910390f35b6108ea60048036036108e5919081019061476a565b612dd7565b005b600060656000837bffffffffffffffffffffffffffffffffffffffffffffffffffffffff19167bffffffffffffffffffffffffffffffffffffffffffffffffffffffff1916815260200190815260200160002060009054906101000a900460ff169050919050565b6060609c8054600181600116156101000203166002900480601f0160208091040260200160405190810160405280929190818152602001828054600181600116156101000203166002900480156109ec5780601f106109c1576101008083540402835291602001916109ec565b820191906000526020600020905b8154815290600101906020018083116109cf57829003601f168201915b5050505050905090565b6000610a018261303f565b610a40576040517f08c379a0000000000000000000000000000000000000000000000000000000008152600401610a37906157db565b60405180910390fd5b609a600083815260200190815260200160002060009054906101000a900473ffffffffffffffffffffffffffffffffffffffff169050919050565b6000610a8682611a31565b90508073ffffffffffffffffffffffffffffffffffffffff168373ffffffffffffffffffffffffffffffffffffffff161415610af7576040517f08c379a0000000000000000000000000000000000000000000000000000000008152600401610aee9061585b565b60405180910390fd5b8073ffffffffffffffffffffffffffffffffffffffff16610b1661305c565b73ffffffffffffffffffffffffffffffffffffffff161480610b455750610b4481610b3f61305c565b612d1c565b5b610b84576040517f08c379a0000000000000000000000000000000000000000000000000000000008152600401610b7b9061575b565b60405180910390fd5b610b8e838361306b565b505050565b6000610b9f6098613124565b905090565b60608173ffffffffffffffffffffffffffffffffffffffff16610bc561305c565b73ffffffffffffffffffffffffffffffffffffffff1614610be557600080fd5b60fe60008373ffffffffffffffffffffffffffffffffffffffff1673ffffffffffffffffffffffffffffffffffffffff168152602001908152602001600020805480602002602001604051908101604052809291908181526020018280548015610c6e57602002820191906000526020600020905b815481526020019060010190808311610c5a575b50505050509050919050565b61010260009054906101000a900473ffffffffffffffffffffffffffffffffffffffff1673ffffffffffffffffffffffffffffffffffffffff16610cbc61305c565b73ffffffffffffffffffffffffffffffffffffffff1614610d12576040517f08c379a0000000000000000000000000000000000000000000000000000000008152600401610d099061571b565b60405180910390fd5b6040518060400160405280600881526020017f52656a656374656400000000000000000000000000000000000000000000000081525061010160008381526020019081526020016000206006019080519060200190610d72929190613fbc565b5050565b610d87610d8161305c565b82613139565b610dc6576040517f08c379a0000000000000000000000000000000000000000000000000000000008152600401610dbd9061589b565b60405180910390fd5b610dd1838383613217565b505050565b606061010260009054906101000a900473ffffffffffffffffffffffffffffffffffffffff1673ffffffffffffffffffffffffffffffffffffffff16610e1a61305c565b73ffffffffffffffffffffffffffffffffffffffff1614610e70576040517f08c379a0000000000000000000000000000000000000000000000000000000008152600401610e679061571b565b60405180910390fd5b60fd805480602002602001604051908101604052809291908181526020018280548015610ebc57602002820191906000526020600020905b815481526020019060010190808311610ea8575b5050505050905090565b610ece61403c565b61010260009054906101000a900473ffffffffffffffffffffffffffffffffffffffff1673ffffffffffffffffffffffffffffffffffffffff16610f1061305c565b73ffffffffffffffffffffffffffffffffffffffff161480610f9b5750610100600083815260200190815260200160002060010160009054906101000a900473ffffffffffffffffffffffffffffffffffffffff1673ffffffffffffffffffffffffffffffffffffffff16610f8361305c565b73ffffffffffffffffffffffffffffffffffffffff16145b156111e75761010060008381526020019081526020016000206040518060e0016040529081600082015481526020016001820160009054906101000a900473ffffffffffffffffffffffffffffffffffffffff1673ffffffffffffffffffffffffffffffffffffffff1673ffffffffffffffffffffffffffffffffffffffff16815260200160028201548152602001600382018054600181600116156101000203166002900480601f0160208091040260200160405190810160405280929190818152602001828054600181600116156101000203166002900480156110c25780601f10611097576101008083540402835291602001916110c2565b820191906000526020600020905b8154815290600101906020018083116110a557829003601f168201915b50505050508152602001600482018054600181600116156101000203166002900480601f0160208091040260200160405190810160405280929190818152602001828054600181600116156101000203166002900480156111645780601f1061113957610100808354040283529160200191611164565b820191906000526020600020905b81548152906001019060200180831161114757829003601f168201915b50505050508152602001600582018054806020026020016040519081016040528092919081815260200182805480156111bc57602002820191906000526020600020905b8154815260200190600101908083116111a8575b505050505081526020016006820160009054906101000a900460ff1615151515815250509050611222565b6040517f08c379a00000000000000000000000000000000000000000000000000000000081526004016112199061583b565b60405180910390fd5b919050565b600061127a82609760008673ffffffffffffffffffffffffffffffffffffffff1673ffffffffffffffffffffffffffffffffffffffff16815260200190815260200160002061342e90919063ffffffff16565b905092915050565b60fe602052816000526040600020818154811061129b57fe5b90600052602060002001600091509150505481565b600080620186a0426112c061305c565b610103546040516020016112d69392919061553b565b6040516020818303038152906040528051906020012060001c816112f657fe5b069050600181019050610103600081548092919060010191905055508060ff600061131f61305c565b73ffffffffffffffffffffffffffffffffffffffff1673ffffffffffffffffffffffffffffffffffffffff168152602001908152602001600020819055505090565b61137c8383836040518060200160405280600081525061281f565b505050565b610100600082815260200190815260200160002060010160009054906101000a900473ffffffffffffffffffffffffffffffffffffffff1673ffffffffffffffffffffffffffffffffffffffff166113d761305c565b73ffffffffffffffffffffffffffffffffffffffff16146113f757600080fd5b6000610100600083815260200190815260200160002060060160006101000a81548160ff02191690831515021790555050565b61010260009054906101000a900473ffffffffffffffffffffffffffffffffffffffff1673ffffffffffffffffffffffffffffffffffffffff1661146c61305c565b73ffffffffffffffffffffffffffffffffffffffff16146114c2576040517f08c379a00000000000000000000000000000000000000000000000000000000081526004016114b99061571b565b60405180910390fd5b6040518060400160405280600881526020017f417070726f76656400000000000000000000000000000000000000000000000081525061010160008381526020019081526020016000206006019080519060200190611522929190613fbc565b5050565b60008061153d83609861344890919063ffffffff16565b50905080915050919050565b60008173ffffffffffffffffffffffffffffffffffffffff1661156a61305c565b73ffffffffffffffffffffffffffffffffffffffff161461158a57600080fd5b60ff60008373ffffffffffffffffffffffffffffffffffffffff1673ffffffffffffffffffffffffffffffffffffffff168152602001908152602001600020549050919050565b6115d9614091565b61010160008381526020019081526020016000206040518061010001604052908160008201548152602001600182018054600181600116156101000203166002900480601f01602080910402602001604051908101604052809291908181526020018280546001816001161561010002031660029004801561169c5780601f106116715761010080835404028352916020019161169c565b820191906000526020600020905b81548152906001019060200180831161167f57829003601f168201915b50505050508152602001600282018054600181600116156101000203166002900480601f01602080910402602001604051908101604052809291908181526020018280546001816001161561010002031660029004801561173e5780601f106117135761010080835404028352916020019161173e565b820191906000526020600020905b81548152906001019060200180831161172157829003601f168201915b50505050508152602001600382018054600181600116156101000203166002900480601f0160208091040260200160405190810160405280929190818152602001828054600181600116156101000203166002900480156117e05780601f106117b5576101008083540402835291602001916117e0565b820191906000526020600020905b8154815290600101906020018083116117c357829003601f168201915b5050505050815260200160048201548152602001600582018054600181600116156101000203166002900480601f01602080910402602001604051908101604052809291908181526020018280546001816001161561010002031660029004801561188c5780601f106118615761010080835404028352916020019161188c565b820191906000526020600020905b81548152906001019060200180831161186f57829003601f168201915b50505050508152602001600682018054600181600116156101000203166002900480601f01602080910402602001604051908101604052809291908181526020018280546001816001161561010002031660029004801561192e5780601f106119035761010080835404028352916020019161192e565b820191906000526020600020905b81548152906001019060200180831161191157829003601f168201915b505050505081526020016007820154815250509050919050565b606060fb805480602002602001604051908101604052809291908181526020016000905b82821015611a28578382906000526020600020018054600181600116156101000203166002900480601f016020809104026020016040519081016040528092919081815260200182805460018160011615610100020316600290048015611a145780601f106119e957610100808354040283529160200191611a14565b820191906000526020600020905b8154815290600101906020018083116119f757829003601f168201915b50505050508152602001906001019061196c565b50505050905090565b6000611a6182604051806060016040528060298152602001615d9b6029913960986134779092919063ffffffff16565b9050919050565b6060610100600083815260200190815260200160002060010160009054906101000a900473ffffffffffffffffffffffffffffffffffffffff1673ffffffffffffffffffffffffffffffffffffffff16611ac061305c565b73ffffffffffffffffffffffffffffffffffffffff1614611ae057600080fd5b6101006000838152602001908152602001600020600501805480602002602001604051908101604052809291908181526020018280548015611b4157602002820191906000526020600020905b815481526020019060010190808311611b2d575b50505050509050919050565b6060609f8054600181600116156101000203166002900480601f016020809104026020016040519081016040528092919081815260200182805460018160011615610100020316600290048015611be55780601f10611bba57610100808354040283529160200191611be5565b820191906000526020600020905b815481529060010190602001808311611bc857829003601f168201915b5050505050905090565b60008073ffffffffffffffffffffffffffffffffffffffff168273ffffffffffffffffffffffffffffffffffffffff161415611c60576040517f08c379a0000000000000000000000000000000000000000000000000000000008152600401611c579061577b565b60405180910390fd5b611ca7609760008473ffffffffffffffffffffffffffffffffffffffff1673ffffffffffffffffffffffffffffffffffffffff168152602001908152602001600020613496565b9050919050565b600060c960009054906101000a900473ffffffffffffffffffffffffffffffffffffffff16905090565b6000611ce2611cae565b73ffffffffffffffffffffffffffffffffffffffff163373ffffffffffffffffffffffffffffffffffffffff1614611d4f576040517f08c379a0000000000000000000000000000000000000000000000000000000008152600401611d469061587b565b60405180910390fd5b611d58826134ab565b9050919050565b60006060611d6b6134b2565b915091509b509b9950505050505050505050565b600061010260009054906101000a900473ffffffffffffffffffffffffffffffffffffffff16905090565b60008060ff6000611db961305c565b73ffffffffffffffffffffffffffffffffffffffff1673ffffffffffffffffffffffffffffffffffffffff168152602001908152602001600020541415611e035760009050611e08565b600190505b90565b6060609d8054600181600116156101000203166002900480601f016020809104026020016040519081016040528092919081815260200182805460018160011615610100020316600290048015611ea35780601f10611e7857610100808354040283529160200191611ea3565b820191906000526020600020905b815481529060010190602001808311611e8657829003601f168201915b5050505050905090565b611eb561305c565b73ffffffffffffffffffffffffffffffffffffffff168273ffffffffffffffffffffffffffffffffffffffff161415611f23576040517f08c379a0000000000000000000000000000000000000000000000000000000008152600401611f1a906156fb565b60405180910390fd5b80609b6000611f3061305c565b73ffffffffffffffffffffffffffffffffffffffff1673ffffffffffffffffffffffffffffffffffffffff16815260200190815260200160002060008473ffffffffffffffffffffffffffffffffffffffff1673ffffffffffffffffffffffffffffffffffffffff16815260200190815260200160002060006101000a81548160ff0219169083151502179055508173ffffffffffffffffffffffffffffffffffffffff16611fdd61305c565b73ffffffffffffffffffffffffffffffffffffffff167f17307eab39ab6107e8899845ad3d59bd9653f200f220920489ca2b5937696c31836040516120229190615623565b60405180910390a35050565b610101602052806000526040600020600091509050806000015490806001018054600181600116156101000203166002900480601f0160208091040260200160405190810160405280929190818152602001828054600181600116156101000203166002900480156120e15780601f106120b6576101008083540402835291602001916120e1565b820191906000526020600020905b8154815290600101906020018083116120c457829003601f168201915b505050505090806002018054600181600116156101000203166002900480601f01602080910402602001604051908101604052809291908181526020018280546001816001161561010002031660029004801561217f5780601f106121545761010080835404028352916020019161217f565b820191906000526020600020905b81548152906001019060200180831161216257829003601f168201915b505050505090806003018054600181600116156101000203166002900480601f01602080910402602001604051908101604052809291908181526020018280546001816001161561010002031660029004801561221d5780601f106121f25761010080835404028352916020019161221d565b820191906000526020600020905b81548152906001019060200180831161220057829003601f168201915b505050505090806004015490806005018054600181600116156101000203166002900480601f0160208091040260200160405190810160405280929190818152602001828054600181600116156101000203166002900480156122c15780601f10612296576101008083540402835291602001916122c1565b820191906000526020600020905b8154815290600101906020018083116122a457829003601f168201915b505050505090806006018054600181600116156101000203166002900480601f01602080910402602001604051908101604052809291908181526020018280546001816001161561010002031660029004801561235f5780601f106123345761010080835404028352916020019161235f565b820191906000526020600020905b81548152906001019060200180831161234257829003601f168201915b5050505050908060070154905088565b61010060008b81526020019081526020016000206002015460ff600061239361305c565b73ffffffffffffffffffffffffffffffffffffffff1673ffffffffffffffffffffffffffffffffffffffff16815260200190815260200160002054146123d857600080fd5b6000620186a0426123e761305c565b610103546040516020016123fd9392919061553b565b6040516020818303038152906040528051906020012060001c8161241d57fe5b069050600181019050610103600081548092919060010191905055506040518061010001604052808281526020018b8b8080601f016020809104026020016040519081016040528093929190818152602001838380828437600081840152601f19601f82011690508083019250505050505050815260200189898080601f016020809104026020016040519081016040528093929190818152602001838380828437600081840152601f19601f82011690508083019250505050505050815260200187878080601f016020809104026020016040519081016040528093929190818152602001838380828437600081840152601f19601f82011690508083019250505050505050815260200185815260200184848080601f016020809104026020016040519081016040528093929190818152602001838380828437600081840152601f19601f8201169050808301925050505050505081526020016040518060400160405280600b81526020017f756e70726f63657373656400000000000000000000000000000000000000000081525081526020018c81525061010160008381526020019081526020016000206000820151816000015560208201518160010190805190602001906125f29291906140d6565b50604082015181600201908051906020019061260f9291906140d6565b50606082015181600301908051906020019061262c9291906140d6565b506080820151816004015560a08201518160050190805190602001906126539291906140d6565b5060c08201518160060190805190602001906126709291906140d6565b5060e0820151816007015590505061010060008c815260200190815260200160002060050181908060018154018082558091505060019003906000526020600020016000909190919091505560fd8190806001815401808255809150506001900390600052602060002001600090919091909150555050505050505050505050565b606061010260009054906101000a900473ffffffffffffffffffffffffffffffffffffffff1673ffffffffffffffffffffffffffffffffffffffff1661273661305c565b73ffffffffffffffffffffffffffffffffffffffff161461278c576040517f08c379a00000000000000000000000000000000000000000000000000000000081526004016127839061571b565b60405180910390fd5b60fc8054806020026020016040519081016040528092919081815260200182805480156127d857602002820191906000526020600020905b8154815260200190600101908083116127c4575b5050505050905090565b60606040518060400160405280600581526020017f312e302e30000000000000000000000000000000000000000000000000000000815250905090565b61283061282a61305c565b83613139565b61286f576040517f08c379a00000000000000000000000000000000000000000000000000000000081526004016128669061589b565b60405180910390fd5b61287b848484846134d6565b50505050565b606061288c8261303f565b6128cb576040517f08c379a00000000000000000000000000000000000000000000000000000000081526004016128c29061581b565b60405180910390fd5b6060609e60008481526020019081526020016000208054600181600116156101000203166002900480601f0160208091040260200160405190810160405280929190818152602001828054600181600116156101000203166002900480156129745780601f1061294957610100808354040283529160200191612974565b820191906000526020600020905b81548152906001019060200180831161295757829003601f168201915b505050505090506000609f80546001816001161561010002031660029004905014156129a35780915050612a07565b6000815111156129d857609f816040516020016129c1929190615517565b604051602081830303815290604052915050612a07565b609f6129e384613532565b6040516020016129f4929190615517565b6040516020818303038152906040529150505b919050565b61010260009054906101000a900473ffffffffffffffffffffffffffffffffffffffff1673ffffffffffffffffffffffffffffffffffffffff16612a4e61305c565b73ffffffffffffffffffffffffffffffffffffffff1614612aa4576040517f08c379a0000000000000000000000000000000000000000000000000000000008152600401612a9b9061571b565b60405180910390fd5b60fb81908060018154018082558091505060019003906000526020600020016000909190919091509080519060200190612adf929190613fbc565b5050565b6101006020528060005260406000206000915090508060000154908060010160009054906101000a900473ffffffffffffffffffffffffffffffffffffffff1690806002015490806003018054600181600116156101000203166002900480601f016020809104026020016040519081016040528092919081815260200182805460018160011615610100020316600290048015612bc25780601f10612b9757610100808354040283529160200191612bc2565b820191906000526020600020905b815481529060010190602001808311612ba557829003601f168201915b505050505090806004018054600181600116156101000203166002900480601f016020809104026020016040519081016040528092919081815260200182805460018160011615610100020316600290048015612c605780601f10612c3557610100808354040283529160200191612c60565b820191906000526020600020905b815481529060010190602001808311612c4357829003601f168201915b5050505050908060060160009054906101000a900460ff16905086565b60ff6020528060005260406000206000915090505481565b612c9d611cae565b73ffffffffffffffffffffffffffffffffffffffff163373ffffffffffffffffffffffffffffffffffffffff1614612d0a576040517f08c379a0000000000000000000000000000000000000000000000000000000008152600401612d019061587b565b60405180910390fd5b612d1684848484613662565b50505050565b6000609b60008473ffffffffffffffffffffffffffffffffffffffff1673ffffffffffffffffffffffffffffffffffffffff16815260200190815260200160002060008373ffffffffffffffffffffffffffffffffffffffff1673ffffffffffffffffffffffffffffffffffffffff16815260200190815260200160002060009054906101000a900460ff16905092915050565b61010260009054906101000a900473ffffffffffffffffffffffffffffffffffffffff1681565b6000620186a042612de661305c565b61010354604051602001612dfc9392919061553b565b6040516020818303038152906040528051906020012060001c81612e1c57fe5b0690506001810190506101036000815480929190600101919050555060ff6000612e4461305c565b73ffffffffffffffffffffffffffffffffffffffff1673ffffffffffffffffffffffffffffffffffffffff1681526020019081526020016000205461010060008381526020019081526020016000206002018190555060fe6000612ea661305c565b73ffffffffffffffffffffffffffffffffffffffff1673ffffffffffffffffffffffffffffffffffffffff16815260200190815260200160002081908060018154018082558091505060019003906000526020600020016000909190919091505580610100600083815260200190815260200160002060000181905550612f2b61305c565b610100600083815260200190815260200160002060010160006101000a81548173ffffffffffffffffffffffffffffffffffffffff021916908373ffffffffffffffffffffffffffffffffffffffff160217905550848461010060008481526020019081526020016000206003019190612fa6929190614156565b506001610100600083815260200190815260200160002060060160006101000a81548160ff021916908315150217905550828261010060008481526020019081526020016000206004019190612ffd929190614156565b5060fc81908060018154018082558091505060019003906000526020600020016000909190919091505561303861303261305c565b82613668565b5050505050565b60006130558260986137f690919063ffffffff16565b9050919050565b6000613066613810565b905090565b81609a600083815260200190815260200160002060006101000a81548173ffffffffffffffffffffffffffffffffffffffff021916908373ffffffffffffffffffffffffffffffffffffffff160217905550808273ffffffffffffffffffffffffffffffffffffffff166130de83611a31565b73ffffffffffffffffffffffffffffffffffffffff167f8c5be1e5ebec7d5bd14f71427d1e84f3dd0314c0f7b2291e5b200ac8c7c3b92560405160405180910390a45050565b60006131328260000161387d565b9050919050565b60006131448261303f565b613183576040517f08c379a000000000000000000000000000000000000000000000000000000000815260040161317a9061573b565b60405180910390fd5b600061318e83611a31565b90508073ffffffffffffffffffffffffffffffffffffffff168473ffffffffffffffffffffffffffffffffffffffff1614806131fd57508373ffffffffffffffffffffffffffffffffffffffff166131e5846109f6565b73ffffffffffffffffffffffffffffffffffffffff16145b8061320e575061320d8185612d1c565b5b91505092915050565b8273ffffffffffffffffffffffffffffffffffffffff1661323782611a31565b73ffffffffffffffffffffffffffffffffffffffff161461328d576040517f08c379a0000000000000000000000000000000000000000000000000000000008152600401613284906157fb565b60405180910390fd5b600073ffffffffffffffffffffffffffffffffffffffff168273ffffffffffffffffffffffffffffffffffffffff1614156132fd576040517f08c379a00000000000000000000000000000000000000000000000000000000081526004016132f4906156db565b60405180910390fd5b61330883838361388e565b61331360008261306b565b61336481609760008673ffffffffffffffffffffffffffffffffffffffff1673ffffffffffffffffffffffffffffffffffffffff16815260200190815260200160002061389390919063ffffffff16565b506133b681609760008573ffffffffffffffffffffffffffffffffffffffff1673ffffffffffffffffffffffffffffffffffffffff1681526020019081526020016000206138ad90919063ffffffff16565b506133cd818360986138c79092919063ffffffff16565b50808273ffffffffffffffffffffffffffffffffffffffff168473ffffffffffffffffffffffffffffffffffffffff167fddf252ad1be2c89b69c2b068fc378daa952ba7f163c4a11628f55a4df523b3ef60405160405180910390a4505050565b600061343d83600001836138fc565b60001c905092915050565b60008060008061345b8660000186613969565b915091508160001c8160001c8090509350935050509250929050565b600061348a846000018460001b846139ec565b60001c90509392505050565b60006134a482600001613a7d565b9050919050565b6000919050565b600060606134ce60405180602001604052806000815250613a8e565b915091509091565b6134e1848484613217565b6134ed84848484613a9e565b61352c576040517f08c379a00000000000000000000000000000000000000000000000000000000081526004016135239061569b565b60405180910390fd5b50505050565b6060600082141561357a576040518060400160405280600181526020017f3000000000000000000000000000000000000000000000000000000000000000815250905061365d565b600082905060005b600082146135a4578080600101915050600a828161359c57fe5b049150613582565b6060816040519080825280601f01601f1916602001820160405280156135d95781602001600182028038833980820191505090505b50905060006001830390508593505b6000841461365557600a84816135fa57fe5b0660300160f81b8282806001900393508151811061361457fe5b60200101907effffffffffffffffffffffffffffffffffffffffffffffffffffffffffffff1916908160001a905350600a848161364d57fe5b0493506135e8565b819450505050505b919050565b50505050565b600073ffffffffffffffffffffffffffffffffffffffff168273ffffffffffffffffffffffffffffffffffffffff1614156136d8576040517f08c379a00000000000000000000000000000000000000000000000000000000081526004016136cf906157bb565b60405180910390fd5b6136e18161303f565b15613721576040517f08c379a0000000000000000000000000000000000000000000000000000000008152600401613718906156bb565b60405180910390fd5b61372d6000838361388e565b61377e81609760008573ffffffffffffffffffffffffffffffffffffffff1673ffffffffffffffffffffffffffffffffffffffff1681526020019081526020016000206138ad90919063ffffffff16565b50613795818360986138c79092919063ffffffff16565b50808273ffffffffffffffffffffffffffffffffffffffff16600073ffffffffffffffffffffffffffffffffffffffff167fddf252ad1be2c89b69c2b068fc378daa952ba7f163c4a11628f55a4df523b3ef60405160405180910390a45050565b6000613808836000018360001b613c7f565b905092915050565b600060c960009054906101000a900473ffffffffffffffffffffffffffffffffffffffff1673ffffffffffffffffffffffffffffffffffffffff163373ffffffffffffffffffffffffffffffffffffffff161461386f5733905061387a565b613877613ca2565b90505b90565b600081600001805490509050919050565b505050565b60006138a5836000018360001b613d1a565b905092915050565b60006138bf836000018360001b613e02565b905092915050565b60006138f3846000018460001b8473ffffffffffffffffffffffffffffffffffffffff1660001b613e72565b90509392505050565b600081836000018054905011613947576040517f08c379a000000000000000000000000000000000000000000000000000000000815260040161393e9061567b565b60405180910390fd5b82600001828154811061395657fe5b9060005260206000200154905092915050565b600080828460000180549050116139b5576040517f08c379a00000000000000000000000000000000000000000000000000000000081526004016139ac9061579b565b60405180910390fd5b60008460000184815481106139c657fe5b906000526020600020906002020190508060000154816001015492509250509250929050565b60008084600101600085815260200190815260200160002054905060008114158390613a4e576040517f08c379a0000000000000000000000000000000000000000000000000000000008152600401613a459190615659565b60405180910390fd5b50846000016001820381548110613a6157fe5b9060005260206000209060020201600101549150509392505050565b600081600001805490509050919050565b6000606060008391509150915091565b6000613abf8473ffffffffffffffffffffffffffffffffffffffff16613f4e565b613acc5760019050613c77565b600060608573ffffffffffffffffffffffffffffffffffffffff1663150b7a0260e01b613af761305c565b898888604051602401613b0d9493929190615593565b604051602081830303815290604052907bffffffffffffffffffffffffffffffffffffffffffffffffffffffff19166020820180517bffffffffffffffffffffffffffffffffffffffffffffffffffffffff8381831617835250505050604051613b779190615500565b6000604051808303816000865af19150503d8060008114613bb4576040519150601f19603f3d011682016040523d82523d6000602084013e613bb9565b606091505b509150915081613c1157600081511115613bd65780518082602001fd5b6040517f08c379a0000000000000000000000000000000000000000000000000000000008152600401613c089061569b565b60405180910390fd5b600081806020019051613c279190810190614685565b905063150b7a0260e01b7bffffffffffffffffffffffffffffffffffffffffffffffffffffffff1916817bffffffffffffffffffffffffffffffffffffffffffffffffffffffff19161493505050505b949350505050565b600080836001016000848152602001908152602001600020541415905092915050565b600060606000368080601f016020809104026020016040519081016040528093929190818152602001838380828437600081840152601f19601f820116905080830192505050505050509050600080369050905073ffffffffffffffffffffffffffffffffffffffff81830151169250829250505090565b60008083600101600084815260200190815260200160002054905060008114613df65760006001820390506000600186600001805490500390506000866000018281548110613d6557fe5b9060005260206000200154905080876000018481548110613d8257fe5b9060005260206000200181905550600183018760010160008381526020019081526020016000208190555086600001805480613dba57fe5b60019003818190600052602060002001600090559055866001016000878152602001908152602001600020600090556001945050505050613dfc565b60009150505b92915050565b6000613e0e8383613f99565b613e67578260000182908060018154018082558091505060019003906000526020600020016000909190919091505582600001805490508360010160008481526020019081526020016000208190555060019050613e6c565b600090505b92915050565b6000808460010160008581526020019081526020016000205490506000811415613f1957846000016040518060400160405280868152602001858152509080600181540180825580915050600190039060005260206000209060020201600090919091909150600082015181600001556020820151816001015550508460000180549050856001016000868152602001908152602001600020819055506001915050613f47565b82856000016001830381548110613f2c57fe5b90600052602060002090600202016001018190555060009150505b9392505050565b60008060007fc5d2460186f7233c927e7db2dcc703c0e500b653ca82273b7bfad8045d85a47060001b9050833f9150808214158015613f9057506000801b8214155b92505050919050565b600080836001016000848152602001908152602001600020541415905092915050565b828054600181600116156101000203166002900490600052602060002090601f016020900481019282601f10613ffd57805160ff191683800117855561402b565b8280016001018555821561402b579182015b8281111561402a57825182559160200191906001019061400f565b5b50905061403891906141d6565b5090565b6040518060e0016040528060008152602001600073ffffffffffffffffffffffffffffffffffffffff168152602001600081526020016060815260200160608152602001606081526020016000151581525090565b60405180610100016040528060008152602001606081526020016060815260200160608152602001600081526020016060815260200160608152602001600081525090565b828054600181600116156101000203166002900490600052602060002090601f016020900481019282601f1061411757805160ff1916838001178555614145565b82800160010185558215614145579182015b82811115614144578251825591602001919060010190614129565b5b50905061415291906141d6565b5090565b828054600181600116156101000203166002900490600052602060002090601f016020900481019282601f1061419757803560ff19168380011785556141c5565b828001600101855582156141c5579182015b828111156141c45782358255916020019190600101906141a9565b5b5090506141d291906141d6565b5090565b6141f891905b808211156141f45760008160009055506001016141dc565b5090565b90565b60008135905061420a81615d27565b92915050565b60008135905061421f81615d3e565b92915050565b60008135905061423481615d55565b92915050565b60008135905061424981615d6c565b92915050565b60008151905061425e81615d6c565b92915050565b60008083601f84011261427657600080fd5b8235905067ffffffffffffffff81111561428f57600080fd5b6020830191508360018202830111156142a757600080fd5b9250929050565b600082601f8301126142bf57600080fd5b81356142d26142cd82615a87565b615a5a565b915080825260208301602083018583830111156142ee57600080fd5b6142f9838284615c99565b50505092915050565b60008083601f84011261431457600080fd5b8235905067ffffffffffffffff81111561432d57600080fd5b60208301915083600182028301111561434557600080fd5b9250929050565b600082601f83011261435d57600080fd5b813561437061436b82615ab3565b615a5a565b9150808252602083016020830185838301111561438c57600080fd5b614397838284615c99565b50505092915050565b6000813590506143af81615d83565b92915050565b6000602082840312156143c757600080fd5b60006143d5848285016141fb565b91505092915050565b600080604083850312156143f157600080fd5b60006143ff858286016141fb565b9250506020614410858286016141fb565b9150509250929050565b60008060008060008060008060008060006101208c8e03121561443c57600080fd5b600061444a8e828f016141fb565b9b5050602061445b8e828f016141fb565b9a505060408c013567ffffffffffffffff81111561447857600080fd5b6144848e828f01614264565b995099505060606144978e828f016143a0565b97505060806144a88e828f016143a0565b96505060a06144b98e828f016143a0565b95505060c06144ca8e828f016143a0565b94505060e08c013567ffffffffffffffff8111156144e757600080fd5b6144f38e828f01614264565b93509350506101006145078e828f016143a0565b9150509295989b509295989b9093969950565b60008060006060848603121561452f57600080fd5b600061453d868287016141fb565b935050602061454e868287016141fb565b925050604061455f868287016143a0565b9150509250925092565b6000806000806080858703121561457f57600080fd5b600061458d878288016141fb565b945050602061459e878288016141fb565b93505060406145af878288016143a0565b925050606085013567ffffffffffffffff8111156145cc57600080fd5b6145d8878288016142ae565b91505092959194509250565b600080604083850312156145f757600080fd5b6000614605858286016141fb565b925050602061461685828601614210565b9150509250929050565b6000806040838503121561463357600080fd5b6000614641858286016141fb565b9250506020614652858286016143a0565b9150509250929050565b60006020828403121561466e57600080fd5b600061467c8482850161423a565b91505092915050565b60006020828403121561469757600080fd5b60006146a58482850161424f565b91505092915050565b6000602082840312156146c057600080fd5b600082013567ffffffffffffffff8111156146da57600080fd5b6146e6848285016142ae565b91505092915050565b6000806000806080858703121561470557600080fd5b600085013567ffffffffffffffff81111561471f57600080fd5b61472b878288016142ae565b945050602061473c87828801614210565b935050604061474d878288016143a0565b925050606061475e87828801614225565b91505092959194509250565b6000806000806040858703121561478057600080fd5b600085013567ffffffffffffffff81111561479a57600080fd5b6147a687828801614302565b9450945050602085013567ffffffffffffffff8111156147c557600080fd5b6147d187828801614302565b925092505092959194509250565b6000602082840312156147f157600080fd5b600082013567ffffffffffffffff81111561480b57600080fd5b6148178482850161434c565b91505092915050565b60006020828403121561483257600080fd5b6000614840848285016143a0565b91505092915050565b60008060008060008060008060008060c08b8d03121561486857600080fd5b60006148768d828e016143a0565b9a505060208b013567ffffffffffffffff81111561489357600080fd5b61489f8d828e01614302565b995099505060408b013567ffffffffffffffff8111156148be57600080fd5b6148ca8d828e01614302565b975097505060608b013567ffffffffffffffff8111156148e957600080fd5b6148f58d828e01614302565b955095505060806149088d828e016143a0565b93505060a08b013567ffffffffffffffff81111561492557600080fd5b6149318d828e01614302565b92509250509295989b9194979a5092959850565b60006149518383614be7565b905092915050565b600061496583836154cb565b60208301905092915050565b61497a81615c1b565b82525050565b61499161498c82615c1b565b615cdb565b82525050565b6149a081615c09565b82525050565b6149af81615c09565b82525050565b60006149c082615b24565b6149ca8185615b8d565b9350836020820285016149dc85615adf565b8060005b85811015614a1857848403895281516149f98582614945565b9450614a0483615b66565b925060208a019950506001810190506149e0565b50829750879550505050505092915050565b6000614a3582615b3a565b614a3f8185615baf565b9350614a4a83615aff565b8060005b83811015614a7b578151614a628882614959565b9750614a6d83615b80565b925050600181019050614a4e565b5085935050505092915050565b6000614a9382615b2f565b614a9d8185615b9e565b9350614aa883615aef565b8060005b83811015614ad9578151614ac08882614959565b9750614acb83615b73565b925050600181019050614aac565b5085935050505092915050565b614aef81615c2d565b82525050565b614afe81615c2d565b82525050565b614b0d81615c39565b82525050565b6000614b1e82615b45565b614b288185615bc0565b9350614b38818560208601615ca8565b614b4181615d09565b840191505092915050565b6000614b5782615b45565b614b618185615bd1565b9350614b71818560208601615ca8565b80840191505092915050565b6000614b8882615b5b565b614b928185615bed565b9350614ba2818560208601615ca8565b614bab81615d09565b840191505092915050565b6000614bc182615b5b565b614bcb8185615bfe565b9350614bdb818560208601615ca8565b80840191505092915050565b6000614bf282615b50565b614bfc8185615bdc565b9350614c0c818560208601615ca8565b614c1581615d09565b840191505092915050565b6000614c2b82615b50565b614c358185615bed565b9350614c45818560208601615ca8565b614c4e81615d09565b840191505092915050565b600081546001811660008114614c765760018114614c9b57614cdf565b607f6002830416614c878187615bfe565b955060ff1983168652808601935050614cdf565b60028204614ca98187615bfe565b9550614cb485615b0f565b60005b82811015614cd657815481890152600182019150602081019050614cb7565b82880195505050505b505092915050565b6000614cf4602283615bed565b91507f456e756d657261626c655365743a20696e646578206f7574206f6620626f756e60008301527f64730000000000000000000000000000000000000000000000000000000000006020830152604082019050919050565b6000614d5a603283615bed565b91507f4552433732313a207472616e7366657220746f206e6f6e20455243373231526560008301527f63656976657220696d706c656d656e74657200000000000000000000000000006020830152604082019050919050565b6000614dc0601c83615bed565b91507f4552433732313a20746f6b656e20616c7265616479206d696e746564000000006000830152602082019050919050565b6000614e00602483615bed565b91507f4552433732313a207472616e7366657220746f20746865207a65726f2061646460008301527f72657373000000000000000000000000000000000000000000000000000000006020830152604082019050919050565b6000614e66601983615bed565b91507f4552433732313a20617070726f766520746f2063616c6c6572000000000000006000830152602082019050919050565b6000614ea6600a83615bed565b91507f6f6e6c792061646d696e000000000000000000000000000000000000000000006000830152602082019050919050565b6000614ee6602c83615bed565b91507f4552433732313a206f70657261746f7220717565727920666f72206e6f6e657860008301527f697374656e7420746f6b656e00000000000000000000000000000000000000006020830152604082019050919050565b6000614f4c603883615bed565b91507f4552433732313a20617070726f76652063616c6c6572206973206e6f74206f7760008301527f6e6572206e6f7220617070726f76656420666f7220616c6c00000000000000006020830152604082019050919050565b6000614fb2602a83615bed565b91507f4552433732313a2062616c616e636520717565727920666f7220746865207a6560008301527f726f2061646472657373000000000000000000000000000000000000000000006020830152604082019050919050565b6000615018602283615bed565b91507f456e756d657261626c654d61703a20696e646578206f7574206f6620626f756e60008301527f64730000000000000000000000000000000000000000000000000000000000006020830152604082019050919050565b600061507e602083615bed565b91507f4552433732313a206d696e7420746f20746865207a65726f20616464726573736000830152602082019050919050565b60006150be602c83615bed565b91507f4552433732313a20617070726f76656420717565727920666f72206e6f6e657860008301527f697374656e7420746f6b656e00000000000000000000000000000000000000006020830152604082019050919050565b6000615124602983615bed565b91507f4552433732313a207472616e73666572206f6620746f6b656e2074686174206960008301527f73206e6f74206f776e00000000000000000000000000000000000000000000006020830152604082019050919050565b600061518a602f83615bed565b91507f4552433732314d657461646174613a2055524920717565727920666f72206e6f60008301527f6e6578697374656e7420746f6b656e00000000000000000000000000000000006020830152604082019050919050565b60006151f0601283615bed565b91507f4e6f74204f776e6572206f722041646d696e00000000000000000000000000006000830152602082019050919050565b6000615230602183615bed565b91507f4552433732313a20617070726f76616c20746f2063757272656e74206f776e6560008301527f72000000000000000000000000000000000000000000000000000000000000006020830152604082019050919050565b6000615296602483615bed565b91507f47534e526563697069656e743a2063616c6c6572206973206e6f742052656c6160008301527f79487562000000000000000000000000000000000000000000000000000000006020830152604082019050919050565b60006152fc603183615bed565b91507f4552433732313a207472616e736665722063616c6c6572206973206e6f74206f60008301527f776e6572206e6f7220617070726f7665640000000000000000000000000000006020830152604082019050919050565b60006101008301600083015161536e60008601826154cb565b50602083015184820360208601526153868282614be7565b915050604083015184820360408601526153a08282614be7565b915050606083015184820360608601526153ba8282614be7565b91505060808301516153cf60808601826154cb565b5060a083015184820360a08601526153e78282614be7565b91505060c083015184820360c08601526154018282614be7565b91505060e083015161541660e08601826154cb565b508091505092915050565b600060e08301600083015161543960008601826154cb565b50602083015161544c6020860182614997565b50604083015161545f60408601826154cb565b50606083015184820360608601526154778282614be7565b915050608083015184820360808601526154918282614be7565b91505060a083015184820360a08601526154ab8282614a88565b91505060c08301516154c060c0860182614ae6565b508091505092915050565b6154d481615c8f565b82525050565b6154e381615c8f565b82525050565b6154fa6154f582615c8f565b615cff565b82525050565b600061550c8284614b4c565b915081905092915050565b60006155238285614c59565b915061552f8284614bb6565b91508190509392505050565b600061554782866154e9565b6020820191506155578285614980565b60148201915061556782846154e9565b602082019150819050949350505050565b600060208201905061558d60008301846149a6565b92915050565b60006080820190506155a86000830187614971565b6155b560208301866149a6565b6155c260408301856154da565b81810360608301526155d48184614b13565b905095945050505050565b600060208201905081810360008301526155f981846149b5565b905092915050565b6000602082019050818103600083015261561b8184614a2a565b905092915050565b60006020820190506156386000830184614af5565b92915050565b60006020820190506156536000830184614b04565b92915050565b600060208201905081810360008301526156738184614b7d565b905092915050565b6000602082019050818103600083015261569481614ce7565b9050919050565b600060208201905081810360008301526156b481614d4d565b9050919050565b600060208201905081810360008301526156d481614db3565b9050919050565b600060208201905081810360008301526156f481614df3565b9050919050565b6000602082019050818103600083015261571481614e59565b9050919050565b6000602082019050818103600083015261573481614e99565b9050919050565b6000602082019050818103600083015261575481614ed9565b9050919050565b6000602082019050818103600083015261577481614f3f565b9050919050565b6000602082019050818103600083015261579481614fa5565b9050919050565b600060208201905081810360008301526157b48161500b565b9050919050565b600060208201905081810360008301526157d481615071565b9050919050565b600060208201905081810360008301526157f4816150b1565b9050919050565b6000602082019050818103600083015261581481615117565b9050919050565b600060208201905081810360008301526158348161517d565b9050919050565b60006020820190508181036000830152615854816151e3565b9050919050565b6000602082019050818103600083015261587481615223565b9050919050565b6000602082019050818103600083015261589481615289565b9050919050565b600060208201905081810360008301526158b4816152ef565b9050919050565b600060208201905081810360008301526158d58184615355565b905092915050565b600060208201905081810360008301526158f78184615421565b905092915050565b600060208201905061591460008301846154da565b92915050565b600060c08201905061592f60008301896154da565b61593c60208301886149a6565b61594960408301876154da565b818103606083015261595b8186614c20565b9050818103608083015261596f8185614c20565b905061597e60a0830184614af5565b979650505050505050565b600060408201905061599e60008301856154da565b81810360208301526159b08184614b13565b90509392505050565b6000610100820190506159cf600083018b6154da565b81810360208301526159e1818a614c20565b905081810360408301526159f58189614c20565b90508181036060830152615a098188614c20565b9050615a1860808301876154da565b81810360a0830152615a2a8186614c20565b905081810360c0830152615a3e8185614c20565b9050615a4d60e08301846154da565b9998505050505050505050565b6000604051905081810181811067ffffffffffffffff82111715615a7d57600080fd5b8060405250919050565b600067ffffffffffffffff821115615a9e57600080fd5b601f19601f8301169050602081019050919050565b600067ffffffffffffffff821115615aca57600080fd5b601f19601f8301169050602081019050919050565b6000819050602082019050919050565b6000819050602082019050919050565b6000819050602082019050919050565b60008190508160005260206000209050919050565b600081519050919050565b600081519050919050565b600081519050919050565b600081519050919050565b600081519050919050565b600081519050919050565b6000602082019050919050565b6000602082019050919050565b6000602082019050919050565b600082825260208201905092915050565b600082825260208201905092915050565b600082825260208201905092915050565b600082825260208201905092915050565b600081905092915050565b600082825260208201905092915050565b600082825260208201905092915050565b600081905092915050565b6000615c1482615c6f565b9050919050565b6000615c2682615c6f565b9050919050565b60008115159050919050565b6000819050919050565b60007fffffffff0000000000000000000000000000000000000000000000000000000082169050919050565b600073ffffffffffffffffffffffffffffffffffffffff82169050919050565b6000819050919050565b82818337600083830152505050565b60005b83811015615cc6578082015181840152602081019050615cab565b83811115615cd5576000848401525b50505050565b6000615ce682615ced565b9050919050565b6000615cf882615d1a565b9050919050565b6000819050919050565b6000601f19601f8301169050919050565b60008160601b9050919050565b615d3081615c09565b8114615d3b57600080fd5b50565b615d4781615c2d565b8114615d5257600080fd5b50565b615d5e81615c39565b8114615d6957600080fd5b50565b615d7581615c43565b8114615d8057600080fd5b50565b615d8c81615c8f565b8114615d9757600080fd5b5056fe4552433732313a206f776e657220717565727920666f72206e6f6e6578697374656e7420746f6b656ea26469706673582212204d7187ca8d45ab22211bc59ef55c0c0c623cdebb21363bbb3552a1c251307ba864736f6c63430006020033",
  "source": "pragma solidity ^0.6.0;\npragma experimental ABIEncoderV2;\n\nimport \"@openzeppelin/contracts-ethereum-package/contracts/token/ERC721/ERC721.sol\";\nimport \"@openzeppelin/contracts-ethereum-package/contracts/GSN/GSNRecipient.sol\";\n\ncontract cryptoPolicy is ERC721UpgradeSafe, GSNRecipientUpgradeSafe {\n    struct claim {\n        uint256 claimId;\n        string claimDate;\n        string hospitalName;\n        string description;\n        uint256 amount;\n        string claimDocumentHash;\n        string status;\n        uint256 policyId;\n    }\n\n    struct policy {\n        uint256 policyId;\n        address owner;\n        uint256 customerId;\n        string kycHash;\n        string policyType;\n        uint256[] claimIds;\n        bool active;\n    }\n\n    string[] policyTypes;\n    uint256[] allPolicyIds;\n    uint256[] allClaimIds;\n    mapping(address => uint256[]) public userPolicies;\n    mapping(address => uint256) public userCustomerId;\n    mapping(uint256 => policy) public policies;\n    mapping(uint256 => claim) public claims;\n    address public admin;\n    uint256 private non;\n\n    constructor(string memory _name, string memory _symbol) public {\n        __ERC721_init(_name, _symbol);\n        admin = _msgSender();\n        policyTypes.push(\"Smart\");\n        policyTypes.push(\"360\");\n        policyTypes.push(\"Personal\");\n        policyTypes.push(\"Family\");\n        uint256 randomnumber = uint256(\n            keccak256(abi.encodePacked(now, _msgSender(), non))\n        ) % 100000;\n        randomnumber = randomnumber + 1;\n        non++;\n        userCustomerId[_msgSender()] = randomnumber;\n    }\n\n    function acceptRelayedCall(\n        address relay,\n        address from,\n        bytes calldata encodedFunction,\n        uint256 transactionFee,\n        uint256 gasPrice,\n        uint256 gasLimit,\n        uint256 nonce,\n        bytes calldata approvalData,\n        uint256 maxPossibleCharge\n    ) external override view returns (uint256, bytes memory) {\n        // approve ALL calls!\n        return _approveRelayedCall();\n    }\n\n    function _msgSender()\n        internal\n        override(ContextUpgradeSafe, GSNRecipientUpgradeSafe)\n        view\n        returns (address payable)\n    {\n        return GSNRecipientUpgradeSafe._msgSender();\n    }\n\n    function _msgData()\n        internal\n        override(ContextUpgradeSafe, GSNRecipientUpgradeSafe)\n        view\n        returns (bytes memory)\n    {\n        return GSNRecipientUpgradeSafe._msgData();\n    }\n\n    function _preRelayedCall(bytes memory context)\n        internal\n        override\n        returns (bytes32)\n    {}\n\n    function _postRelayedCall(\n        bytes memory context,\n        bool,\n        uint256 actualCharge,\n        bytes32\n    ) internal override {}\n\n    function checkNewCustomer() public view returns (bool) {\n        if (userCustomerId[_msgSender()] == 0) {\n            return false;\n        } else {\n            return true;\n        }\n    }\n\n    function createNewCustomer() external returns (uint256) {\n        uint256 randomnumber = uint256(\n            keccak256(abi.encodePacked(now, _msgSender(), non))\n        ) % 100000;\n        randomnumber = randomnumber + 1;\n        non++;\n        userCustomerId[_msgSender()] = randomnumber;\n    }\n\n    function createPolicyType(string memory _policyType) public {\n        require(_msgSender() == admin, \"only admin\");\n        policyTypes.push(_policyType);\n    }\n\n    function getPolicyTypes() public view returns (string[] memory) {\n        return policyTypes;\n    }\n\n    function getOwner() public view returns (address) {\n        return admin;\n    }\n\n    function getPolicyIds() public view returns (uint256[] memory) {\n        require(_msgSender() == admin, \"only admin\");\n        return allPolicyIds;\n    }\n\n    function getUserPolicies(address _address)\n        public\n        view\n        returns (uint256[] memory)\n    {\n        require(_msgSender() == _address);\n        return userPolicies[_address];\n    }\n\n    function getUserCustomerId(address _address) public view returns (uint256) {\n        require(_msgSender() == _address);\n        return userCustomerId[_address];\n    }\n\n    function getPolicy(uint256 _policyId) public view returns (policy memory) {\n        if (\n            _msgSender() == admin || _msgSender() == policies[_policyId].owner\n        ) {\n            return policies[_policyId];\n        } else {\n            revert(\"Not Owner or Admin\");\n        }\n    }\n\n    function getClaim(uint256 _claimId) public view returns (claim memory) {\n        return claims[_claimId];\n    }\n\n    function getAllClaimIds() public view returns (uint256[] memory) {\n        require(_msgSender() == admin, \"only admin\");\n        return allClaimIds;\n    }\n\n    function getUserPolicyClaimIds(uint256 _policyId)\n        public\n        view\n        returns (uint256[] memory)\n    {\n        require(_msgSender() == policies[_policyId].owner);\n        return policies[_policyId].claimIds;\n    }\n\n    function createPolicy(\n        string calldata _documentHash,\n        string calldata _policyType\n    ) external {\n        uint256 policyId = uint256(\n            keccak256(abi.encodePacked(now, _msgSender(), non))\n        ) % 100000;\n        policyId = policyId + 1;\n        non++;\n\n        policies[policyId].customerId = userCustomerId[_msgSender()];\n        userPolicies[_msgSender()].push(policyId);\n        policies[policyId].policyId = policyId;\n        policies[policyId].owner = _msgSender();\n        policies[policyId].kycHash = _documentHash;\n        policies[policyId].active = true;\n        policies[policyId].policyType = _policyType;\n        allPolicyIds.push(policyId);\n        _mint(_msgSender(), policyId);\n    }\n\n    function burn(uint256 _policyId) external {\n        require(_msgSender() == policies[_policyId].owner);\n        policies[_policyId].active = false;\n    }\n\n    function claimPolicy(\n        uint256 _policyId,\n        string calldata _claimDate,\n        string calldata _hospitalName,\n        string calldata _description,\n        uint256 _amount,\n        string calldata _claimdocs\n    ) external {\n        require(userCustomerId[_msgSender()] == policies[_policyId].customerId);\n        uint256 id = uint256(\n            keccak256(abi.encodePacked(now, _msgSender(), non))\n        ) % 100000;\n        id = id + 1;\n        non++;\n        claims[id] = claim(\n            id,\n            _claimDate,\n            _hospitalName,\n            _description,\n            _amount,\n            _claimdocs,\n            \"unprocessed\",\n            _policyId\n        );\n        policies[_policyId].claimIds.push(id);\n        allClaimIds.push(id);\n    }\n\n    function approveClaim(uint256 _claimId) external {\n        require(_msgSender() == admin, \"only admin\");\n        claims[_claimId].status = \"Approved\";\n    }\n\n    function rejectClaim(uint256 _claimId) external {\n        require(_msgSender() == admin, \"only admin\");\n        claims[_claimId].status = \"Rejected\";\n    }\n}\n",
  "sourcePath": "/Users/nitinmittal/Desktop/MSETU/Insurechain/src/contracts/cryptoPolicy.sol",
  "compiler": {
    "name": "solc",
    "version": "0.6.2+commit.bacdbe57.Emscripten.clang"
  },
  "schemaVersion": "3.0.23",
  "updatedAt": "2020-09-02T10:57:28.479Z",
  "devdoc": {
    "methods": {
      "approve(address,uint256)": {
        "details": "Approves another address to transfer the given token ID The zero address indicates there is no approved address. There can only be one approved address per token at a given time. Can only be called by the token owner or an approved operator.",
        "params": {
          "to": "address to be approved for the given token ID",
          "tokenId": "uint256 ID of the token to be approved"
        }
      },
      "balanceOf(address)": {
        "details": "Gets the balance of the specified address.",
        "params": {
          "owner": "address to query the balance of"
        },
        "returns": {
          "_0": "uint256 representing the amount owned by the passed address"
        }
      },
      "baseURI()": {
        "details": "Returns the base URI set via {_setBaseURI}. This will be automatically added as a prefix in {tokenURI} to each token's URI, or to the token ID if no specific URI is set for that token ID."
      },
      "getApproved(uint256)": {
        "details": "Gets the approved address for a token ID, or zero if no address set Reverts if the token ID does not exist.",
        "params": {
          "tokenId": "uint256 ID of the token to query the approval of"
        },
        "returns": {
          "_0": "address currently approved for the given token ID"
        }
      },
      "getHubAddr()": {
        "details": "Returns the address of the {IRelayHub} contract for this recipient."
      },
      "isApprovedForAll(address,address)": {
        "details": "Tells whether an operator is approved by a given owner.",
        "params": {
          "operator": "operator address which you want to query the approval of",
          "owner": "owner address which you want to query the approval of"
        },
        "returns": {
          "_0": "bool whether the given operator is approved by the given owner"
        }
      },
      "name()": {
        "details": "Gets the token name.",
        "returns": {
          "_0": "string representing the token name"
        }
      },
      "ownerOf(uint256)": {
        "details": "Gets the owner of the specified token ID.",
        "params": {
          "tokenId": "uint256 ID of the token to query the owner of"
        },
        "returns": {
          "_0": "address currently marked as the owner of the given token ID"
        }
      },
      "postRelayedCall(bytes,bool,uint256,bytes32)": {
        "details": "See `IRelayRecipient.postRelayedCall`.     * This function should not be overriden directly, use `_postRelayedCall` instead.     * * Requirements:     * - the caller must be the `RelayHub` contract."
      },
      "preRelayedCall(bytes)": {
        "details": "See `IRelayRecipient.preRelayedCall`.     * This function should not be overriden directly, use `_preRelayedCall` instead.     * * Requirements:     * - the caller must be the `RelayHub` contract."
      },
      "relayHubVersion()": {
        "details": "Returns the version string of the {IRelayHub} for which this recipient implementation was built. If {_upgradeRelayHub} is used, the new {IRelayHub} instance should be compatible with this version."
      },
      "safeTransferFrom(address,address,uint256)": {
        "details": "Safely transfers the ownership of a given token ID to another address If the target address is a contract, it must implement {IERC721Receiver-onERC721Received}, which is called upon a safe transfer, and return the magic value `bytes4(keccak256(\"onERC721Received(address,address,uint256,bytes)\"))`; otherwise, the transfer is reverted. Requires the msg.sender to be the owner, approved, or operator",
        "params": {
          "from": "current owner of the token",
          "to": "address to receive the ownership of the given token ID",
          "tokenId": "uint256 ID of the token to be transferred"
        }
      },
      "safeTransferFrom(address,address,uint256,bytes)": {
        "details": "Safely transfers the ownership of a given token ID to another address If the target address is a contract, it must implement {IERC721Receiver-onERC721Received}, which is called upon a safe transfer, and return the magic value `bytes4(keccak256(\"onERC721Received(address,address,uint256,bytes)\"))`; otherwise, the transfer is reverted. Requires the _msgSender() to be the owner, approved, or operator",
        "params": {
          "_data": "bytes data to send along with a safe transfer check",
          "from": "current owner of the token",
          "to": "address to receive the ownership of the given token ID",
          "tokenId": "uint256 ID of the token to be transferred"
        }
      },
      "setApprovalForAll(address,bool)": {
        "details": "Sets or unsets the approval of a given operator An operator is allowed to transfer all tokens of the sender on their behalf.",
        "params": {
          "approved": "representing the status of the approval to be set",
          "operator": "operator address to set the approval"
        }
      },
      "supportsInterface(bytes4)": {
        "details": "See {IERC165-supportsInterface}.     * Time complexity O(1), guaranteed to always use less than 30 000 gas."
      },
      "symbol()": {
        "details": "Gets the token symbol.",
        "returns": {
          "_0": "string representing the token symbol"
        }
      },
      "tokenByIndex(uint256)": {
        "details": "Gets the token ID at a given index of all the tokens in this contract Reverts if the index is greater or equal to the total number of tokens.",
        "params": {
          "index": "uint256 representing the index to be accessed of the tokens list"
        },
        "returns": {
          "_0": "uint256 token ID at the given index of the tokens list"
        }
      },
      "tokenOfOwnerByIndex(address,uint256)": {
        "details": "Gets the token ID at a given index of the tokens list of the requested owner.",
        "params": {
          "index": "uint256 representing the index to be accessed of the requested tokens list",
          "owner": "address owning the tokens list to be accessed"
        },
        "returns": {
          "_0": "uint256 token ID at the given index of the tokens list owned by the requested address"
        }
      },
      "tokenURI(uint256)": {
        "details": "Returns the URI for a given token ID. May return an empty string.     * If a base URI is set (via {_setBaseURI}), it is added as a prefix to the token's own URI (via {_setTokenURI}).     * If there is a base URI but no token URI, the token's ID will be used as its URI when appending it to the base URI. This pattern for autogenerated token URIs can lead to large gas savings.     * .Examples |=== |`_setBaseURI()` |`_setTokenURI()` |`tokenURI()` | \"\" | \"\" | \"\" | \"\" | \"token.uri/123\" | \"token.uri/123\" | \"token.uri/\" | \"123\" | \"token.uri/123\" | \"token.uri/\" | \"\" | \"token.uri/<tokenId>\" |===     * Requirements:     * - `tokenId` must exist."
      },
      "totalSupply()": {
        "details": "Gets the total amount of tokens stored by the contract.",
        "returns": {
          "_0": "uint256 representing the total amount of tokens"
        }
      },
      "transferFrom(address,address,uint256)": {
        "details": "Transfers the ownership of a given token ID to another address. Usage of this method is discouraged, use {safeTransferFrom} whenever possible. Requires the msg.sender to be the owner, approved, or operator.",
        "params": {
          "from": "current owner of the token",
          "to": "address to receive the ownership of the given token ID",
          "tokenId": "uint256 ID of the token to be transferred"
        }
      }
    }
  },
  "userdoc": {
    "methods": {}
  }
}